:100000000C9486160C94B7160C94B7160C94B7166D
:100010000C94B7160C94B7160C94B7160C94B7162C
:100020000C94B7160C94B7160C94B7160C94B7161C
:100030000C94B7160C94B7160C94B7160C94B7160C
:100040000C94B7160C943BA30C94B7160C94B716EB
:100050000C94B7160C94B7160C943E9B0C9423F694
:100060000C94B7160C9490800C9486800C94B71660
:100070000C94B7160C94B7160C94B7160C94B716CC
:100080000C94502D0C94B7160C94B7160C94B7160C
:100090000C94B7160C94B7160C94B7160C94B716AC
:1000A0000C94B7160C94B7160C94222D0C94B7161A
:1000B0000C94B7160C94B7160C94B7160C94F42C39
:1000C0000C94B7160C94B7160C94B7160C9497F6BC
:1000D0000C946DF60C94B7160C94B7160C94B716D6
:1000E0000C94B716084AD73B3BCE016E84BCBFFDCB
:1000F000C12F3D6C74319ABD56833DDA3D00C77FF8
:1001000011BED9E4BB4C3E916BAAAABE0000008090
:100110003F05A84CCDB2D44EB93836A9020C50B91F
:10012000918688083CA6AAAA2ABE000000803F004B
:100130000C9427F40C9431F40C94CF560D94A70A28
:100140000C94B34C0C9481DB0C94B84B0C94E6F3F8
:100150000C947E560C94B24A0C94B3F30C94B04EAB
:100160000C948E3F0C94F0590C94DDDA0C949A5751
:100170000C94A3DB0C945F540C9499520C94C459C6
:100180000C94D35A0C940EDB0C94D7DA0C9413F421
:100190000C94DD590C9450560C94453F0C94DB5D47
:1001A0000C94FAF30C9445DB0C94F9540C941CDB7E
:1001B0000C94DEF30C9460410C94DBDB0C94FCDAC1
:1001C0000C94ABF30C94E9590C949C410C9471562B
:1001D0000C941DF40C940A4E0C9412DB0C94975959
:1001E0000C94C2F30C94CCF30C94894C0C9428DC42
:1001F0000C94C1590C9487550C94BB550C94D7534F
:100200000C9418DB0C94923F0C94E1DA0C94F6DA1F
:100210000C94E9DA0D9479120C94B8F30C943C56D2
:100220000C9424540C945D560C940C5A0C94F0F3DA
:100230000C94CF410C9495DB0C9472DB0C9404DB92
:100240000C94F34F0C943BF40C94BB590C9445F470
:100250000C9408540C9400DB0C9404F40C9417DBFD
:100260000C94025A0C94D6F30C9438410C940ADB8B
:100270000C94BC560C94905B0C94F2DA0C94E5DA76
:100280000C9423560C94ECDA4E414E494E49545985
:10029000494E46CDCCCC3D0AD7233C17B7D1387751
:1002A000CC2B329595E6241FB14F0A000020410067
:1002B00000C84200401C4620BCBE4CCA1B0E5AAEB1
:1002C000C59D7400407A10F35A00A0724E180900C0
:1002D00010A5D4E80000E87648170000E40B5402AB
:1002E0000000CA9A3B000000E1F5050000809698E6
:1002F00000000040420F000000A086010000001036
:100300002700000000E80300000000640000000077
:10031000000A00000000000100000000002C76D858
:1003200088DC674F0823DFC1DFAE59E1B1B796E53E
:10033000E3E453C63AE651997696E8E6C28426EBA2
:10034000898C9B62ED407C6FFCEFBC9C9F40F2BAB5
:10035000A56FA5F490055A2AF75C936B6CF9676D4D
:10036000C11BFCE0E40D47FEF520E6B500D0ED90A2
:100370002E0300943577050080841E080000204E6F
:100380000A000000C80C333333330F986E12831108
:1003900041EF8D2114893BE65516CFFEE6DB18D1DF
:1003A000844B381BF77C1D901DA4BBE424203284B1
:1003B000725E228100C9F124ECA1E53D27434F4D37
:1003C0004D554E49434154494F4E004452595255A0
:1003D0004E004552524F5253004543484F0045721C
:1003E000726F722077726974696E6720746F20452E
:1003F0004550524F4D210A004E6F20436865636B94
:1004000073756D2077697468206C696E65206E75F0
:100410006D6265722C204C617374204C696E653A74
:100420002000636865636B73756D206D69736D6122
:100430007463682C204C617374204C696E653A209B
:10044000004C696E65204E756D626572206973207F
:100450006E6F74204C617374204C696E65204E750C
:100460006D6265722B312C204C617374204C696E67
:10047000653A20004D31313000776169740A0053CC
:10048000442072656164206572726F720A002121D6
:10049000204B494C4C206361757365642062792060
:1004A000746F6F206D75636820696E61637469761F
:1004B000652074696D65202D2063757272656E7498
:1004C00020636F6D6D616E643A2000627573793AD6
:1004D0002070617573656420666F7220696E707537
:1004E000740A00627573793A2070617573656420CF
:1004F000666F7220757365720A00627573793A20AF
:1005000070726F63657373696E670A004D65646925
:100510006120496E736572746564007061757365FE
:10052000004D363030002066696C616D656E745F19
:1005300072756E6F7574200066696C616D656E749E
:100540005F72756E6F757420540046696C616D65DD
:100550006E7452756E6F7574205400706F7765728B
:100560006F6666004B494C4C45442E200050726922
:100570006E7465722068616C7465642E206B696CA2
:100580006C28292063616C6C6564210A00656368CE
:100590006F3A004572726F723A0042696C696E651B
:1005A0006172204C6576656C696E6720477269647C
:1005B0003A0A0053544F505045442E20005072695F
:1005C0006E7465722073746F7070656420647565F5
:1005D00020746F206572726F72732E2046697820C6
:1005E000746865206572726F7220616E6420757325
:1005F00065204D39393920746F20726573746172CA
:10060000742E202854656D70657261747572652052
:1006100069732072657365742E2053657420697444
:100620002061667465722072657374617274696E9C
:1006300067290A0021212053544F502063616C6CBC
:1006400065642062656361757365206F6620424C46
:10065000546F756368206572726F72202D20726509
:1006600073746172742077697468204D3939390A5E
:10067000002F2F616374696F6E3A00626567696E5F
:1006800000627574746F6E00656E640070726F6DD9
:1006900070745F0073686F770044697361626C65A2
:1006A00052756E6F75740050757267654D6F726527
:1006B00000554E4B4E4F574E205354415445004722
:1006C000434F44455F494E464F004C43445F5041C1
:1006D0005553455F524553554D450046494C414D94
:1006E000454E545F52554E4F55545F434F4E5449FB
:1006F0004E55450046494C414D454E545F52554E6E
:100700004F5554004D38373620526573706F6E6404
:10071000696E672050524F4D50545F007061757381
:10072000656400507265737320627574746F6E2017
:10073000746F20726573756D650A00526568656136
:10074000742066696E69736865642E005265686519
:10075000617420446F6E6500526568656174696EEE
:10076000672E2E2E005265686561740048656174BD
:1007700065722054696D656F75740050726573738E
:1007800020627574746F6E20746F206865617420C8
:100790006E6F7A7A6C650A004E6F7A7A6C652050BB
:1007A00061726B656400486F74656E6420746F6F6E
:1007B00020636F6C640A004C6F61642046696C6151
:1007C0006D656E74004C6F61642046696C616D6587
:1007D0006E74205400496E736572742066696C6192
:1007E0006D656E7420616E64207072657373206233
:1007F0007574746F6E0A00726573756D656400526E
:100800006573756D696E670057616974696E6720FD
:10081000666F72206865617475702E0A004C6561A0
:1008200076696E6720473236003F537065636966AC
:1008300069656420582C5920636F6F7264696E611A
:100840007465206F7574206F6620626F756E6473B7
:100850002E0A003F28522965706561742076616C0C
:100860007565206E6F7420706C61757369626C655C
:100870003B206D757374206265206174206C656126
:10088000737420312E0A003F285229657065617407
:10089000206D757374206265207370656369666985
:1008A0006564207768656E206E6F74207573696E5D
:1008B0006720616E204C43442E0A003F53706563ED
:1008C0006966696564206E6F7A7A6C652074656DFF
:1008D0007065726174757265206E6F7420706C61E2
:1008E000757369626C652E0A003F537065636966B3
:1008F0006965642066696C616D656E742073697AE0
:1009000065206E6F7420706C61757369626C652E02
:100910000A003F5370656369666965642070726997
:100920006D65206C656E677468206E6F7420706CE6
:1009300061757369626C652E0A003F5072696D655E
:10094000206C656E677468206D7573742062652015
:10095000737065636966696564207768656E206E8B
:100960006F74207573696E6720616E204C43442E4E
:100970000A003F537065636966696564206E6F7A2B
:100980007A6C652073697A65206E6F7420706C6173
:10099000757369626C652E0A003F526574726163FB
:1009A00074696F6E204D756C7469706C6965722026
:1009B0006D7573742062652073706563696669651F
:1009C000642E0A003F53706563696669656420524E
:1009D000657472616374696F6E204D756C746970B3
:1009E0006C696572206E6F7420706C6175736962DA
:1009F0006C652E0A003F5370656369666965642003
:100A00006C6179657220686569676874206E6F74BF
:100A100020706C61757369626C652E0A0043292E23
:100A20000A003F53706563696669656420626564A6
:100A30002074656D7065726174757265206E6F7477
:100A400020706C61757369626C65202834302D00EC
:100A5000473236207374617274696E672E2E2E0AC7
:100A6000004F46460A00466164652048656967682C
:100A7000742000426564204C6576656C696E672061
:100A8000004661696C656420746F20656E61626CFC
:100A90006520426564204C6576656C696E670A0066
:100AA000496E76616C6964206D6573682E0A00502A
:100AB000726F62696E6720506F696E7400255320F3
:100AC00025692F25690050726F62696E67206D6518
:100AD000736820706F696E74200020284452595248
:100AE000554E2900473239204175746F20426564A4
:100AF000204C6576656C696E67003F20284C2C524F
:100B00002C462C4229206F7574206F6620626F7509
:100B10006E64732E0A003F2856296572626F7365F2
:100B2000206C6576656C20696D706C6175736962A7
:100B30006C652028302D34292E0A00426164205A29
:100B40002076616C75650A004E6F2062696C696E73
:100B500065617220677269640A005374616E646132
:100B6000726420446576696174696F6E3A20002072
:100B700052616E67653A20004D65616E3A2000460D
:100B8000696E6973686564210A002072616E676529
:100B90003A2000207369676D613A2000206D65611D
:100BA0006E3A20003A207A3A2000206F66200047F3
:100BB0006F696E6720746F3A20580043570A00200F
:100BC0006469723A0020616E676C653A0053746123
:100BD0007274207261646975733A00506F7369743E
:100BE000696F6E696E67207468652070726F6265E8
:100BF0002E2E2E0A003F4E756D626572206F6620A4
:100C00006C65677320696E206D6F76656D656E74B7
:100C1000206E6F7420706C61757369626C6520283A
:100C2000302D3135292E0A003F2028582C592920F3
:100C30006F7574206F6620626F756E64732E0A0084
:100C40003F53616D706C652073697A65206E6F74B7
:100C500020706C61757369626C652028342D3530A5
:100C6000292E0A004D3438205A2D50726F626520AB
:100C70005265706561746162696C6974792054654C
:100C800073740A005741524E494E4721204C6F77EA
:100C9000205A204A65726B206D6179206C65616411
:100CA00020746F20756E77616E7465642070617555
:100CB0007365732E0A0020204D61783A20002020B1
:100CC0004D696E3A2000536F667420656E647374CC
:100CD0006F70733A2000496E76616C6964205069C8
:100CE0006E204D6F64650A004732380020496E76E9
:100CF000616C696420657874727564657220004760
:100D0000322F47332062616420706172616D6574B7
:100D10006572730A00536C6565702E2E2E005A2082
:100D200050726F62652050617374204265640A00DE
:100D30005A2050726F62652050617374204265645E
:100D400000486F6D652058592066697273740A00F7
:100D5000486F6D65205859204669727374004D3193
:100D600031372050726F6265206661696C65642E50
:100D70000A4732380A0070726F62655F7265776980
:100D8000706500473239205265747279696E670068
:100D90004D31313720426564206C6576656C696E33
:100DA00067206661696C65642E0A4730205A3130CD
:100DB0000A4D3330302050323520533838300A4D08
:100DC000333030205035302053300A4D333030200E
:100DD00050323520533838300A4D333030205035BA
:100DE000302053300A4D33303020503235205338C4
:100DF00038300A4D333030205035302053300A47D8
:100E0000342053310070726F62655F6661696C6592
:100E100064004D31313720426564206C6576656C25
:100E2000696E6720646F6E652E004D657368207073
:100E30006F696E742063616E6E6F742062652072DC
:100E400065736F6C7665640A004D302053746F7063
:100E5000004D312053746F7000436F6E74696E756E
:100E60006500436C69636B20746F20526573756D08
:100E7000652E2E2E004E6F204D6F76652E00456E2E
:100E8000642066696C65206C6973740A004265674A
:100E9000696E2066696C65206C6973740A0052651E
:100EA00073756D696E6720534400286E6F20666904
:100EB0006C65290043757272656E742066696C6595
:100EC0003A200044656C6574696F6E206661696CD8
:100ED00065642C2046696C653A200046696C652083
:100EE00064656C657465643A005072696E74207450
:100EF000696D653A20000A53746174733A2046693B
:100F00006C616D656E7420757365643A20002C20E9
:100F10004C6F6E67657374206A6F623A2000546F7D
:100F200074616C2074696D653A2000537461747348
:100F30003A20002C204661696C65643A20002C2020
:100F400046696E69736865643A20005072696E7410
:100F5000733A2000452025530044454255473A0046
:100F60004D3131322053687574646F776E004D31A6
:100F7000313320530042656420436F6F6C696E67A4
:100F80002E2E2E004265642048656174696E672EBE
:100F90002E2E002F2F2000416363656C65726174F3
:100FA000696F6E3A20500046523A0020466C6F77C7
:100FB0003A200050726F7465637465642050696EE6
:100FC0000A0020536572766F2000206F7574206FC1
:100FD000662072616E67650A0020643A0020693AF3
:100FE0000020703A006469730043290A0061626C52
:100FF000656420286D696E2074656D702000436FF4
:101000006C64206578747275646573206172652004
:1010100000504944204175746F74756E6520666197
:10102000696C65642120426164206578747275641E
:101030006572206E756D6265720A0046696C616D3D
:10104000656E742072756E6F757420646973746157
:101050006E636520286D6D293A200046696C616DCC
:10106000656E742072756E6F757420004D34323168
:1010700020696E636F727265637420706172616D56
:10108000657465722075736167650A004F666673E3
:10109000657473204170706C696564004572723AC2
:1010A00020546F6F206661722100546F6F2066615B
:1010B000722066726F6D207265666572656E63651B
:1010C00020706F696E740A00454550524F4D204F95
:1010D0004B0A004D383400446F6E65207072696EA3
:1010E00074696E672066696C650A004D3737004D7C
:1010F0003331004361703A004348414D4245525FED
:1011000054454D5045524154555245004241425973
:101110005354455050494E47004D4F54494F4E5F30
:101120004D4F44455300544845524D414C5F505239
:101130004F54454354494F4E004C4F4E475F46492C
:101140004C454E414D45004155544F5245504F522C
:10115000545F53445F5354415455530053444341E7
:1011600052440050524F4D50545F535550504F52BF
:101170005400454D455247454E43595F50415253E7
:10118000455200434153455F4C494748545F4252E2
:10119000494748544E45535300544F47474C455FC9
:1011A0004C494748545300534F4654574152455FAA
:1011B000504F574552004255494C445F50455243A9
:1011C000454E54004C4556454C494E475F444154AA
:1011D00041005A5F50524F4245004155544F4C45D3
:1011E00056454C005052494E545F4A4F42005052AF
:1011F0004F4752455353004155544F5245504F525B
:10120000545F54454D5000564F4C554D455452492E
:101210004300454550524F4D0042494E4152595F9F
:1012200046494C455F5452414E5346455200534542
:101230005249414C5F584F4E5F584F464600464911
:10124000524D574152455F4E414D453A4D61726C8A
:10125000696E20322E302E355F44573720544D337F
:101260004420453550534D44424220285365702058
:10127000203120323032312031373A30303A35396E
:101280002920534F555243455F434F44455F5552C4
:101290004C3A68747470733A2F2F6769746875627A
:1012A0002E636F6D2F496E73616E69747941757429
:1012B0006F6D6174696F6E2F4D61726C696E2F7402
:1012C0007265652F437265616C6974794477696EE4
:1012D0005F322E302050524F544F434F4C5F564593
:1012E0005253494F4E3A312E30204D414348494EDA
:1012F000455F545950453A544D33442045352050AC
:101300006C75732D4A2045585452554445525F43DD
:101310004F554E543A3120555549443A63656465FA
:10132000326132662D343161322D343734382D3903
:101330006231322D63353563363266333637666651
:101340000A0050726F6265204F6666736574205A9A
:101350000050726F6265204F66667365745A3A205A
:101360000020746F20003F5A206F7574206F662034
:1013700072616E67652028003F59206F7574206F79
:10138000662072616E676520282D003F58206F75BA
:1013900074206F662072616E676520282D00507280
:1013A0006F6265204F6666736574205800656E71C4
:1013B00075657565696E672022006F6B00526573F5
:1013C000656E643A200025697920256964202569C5
:1013D000682025696D20256973004D323520500A3B
:1013E0004D323400526573756D650055492050616A
:1013F000757365004E6F204D61746368203A004D2F
:101400003939390A4D323830503053313630004D89
:101410003530320A4D353030000A202A2A2A7265CA
:10142000636461742E646174615B305D203D0047CC
:1014300032380A4731204631303030205A313000BE
:10144000556E737570706F72746564204F70746937
:101450006F6E2053656C6563746564004732365265
:10146000323535004D3139305335350A4732380A77
:101470004732390A4D3430300A4D3130345332312D
:10148000350A4732380A4D313039533231350A4D39
:1014900034323053310A47315831303059313030DD
:1014A00046353030300A47315A300A4D3530300A2F
:1014B0004D31313720536574205A204F666673656D
:1014C00074004732380A4731204631303030205AD4
:1014D000302E30005A204F6666736574203A2025FE
:1014E00073004732380A473146313530305A302E92
:1014F00030004732385A0A473146313530305A3099
:101500002E30004732380A473146313030305A30B9
:101510002E300053746F702054726967676572656E
:10152000640053746F70204E6F00426567696E539C
:101530007769746368007265636461742E616464C2
:1015400072203D3D007265636461742E6461746154
:101550005B305D203D3D0077616974776179203DA6
:101560003D002A2A2A4E6F7A7A6C6554656D705355
:1015700074617475735B325D203D0063616E6365F9
:101580006C005072696E742041626F727465640001
:101590004469736D6973730055492041626F7274B9
:1015A000656400726573756D6500363726033C3DD2
:1015B000380E2E303E121A1C180AFF43080907087D
:1015C000440001D903C506D203CB03BD030000FAD2
:1015D000430000FA430000C843000070C10000202F
:1015E000C100000000205200206D61783A200020E8
:1015F0006D696E3A2000496E76616C696420657889
:101600007472756465720A0053657474696E6773E9
:101610002053746F726564002062797465733B2097
:10162000637263200053657474696E67732053742A
:101630006F726564202800454550524F4D2064610B
:10164000746173697A65206572726F722E0A002068
:1016500073746F7265642073657474696E67732048
:10166000726574726965766564202800202863615C
:101670006C63756C6174656429210A0020213D202A
:1016800000454550524F4D20435243206D69736DC4
:1016900061746368202D202873746F72656429203B
:1016A00000496E6465783A2000204D61726C696E65
:1016B0003D563739290A00454550524F4D20766531
:1016C0007273696F6E206D69736D61746368202831
:1016D000454550524F4D3D000A20696E6974207A8D
:1016E00070726F62655F7A6F6666736574203D2005
:1016F00000454550524F4D20496E697469616C69CF
:101700007A65640A0048617264636F6465642044AA
:10171000656661756C742053657474696E677320B7
:101720004C6F616465640A003B200020204D363018
:1017300033200020204D34313220530046696C6143
:101740006D656E742072756E6F75742073656E733F
:101750006F723A0020550046696C616D656E7420A9
:101760006C6F61642F756E6C6F6164206C656E6761
:101770007468733A0020204D3835312058005A2DB6
:1017800050726F6265204F66667365740020204D4D
:1017900033303420500020204D3330312050005061
:1017A00049442073657474696E67733A00204A0077
:1017B0002020473239205720490020204D34323034
:1017C0002053004175746F20426564204C65766536
:1017D0006C696E673A0020204D3230362058004840
:1017E0006F6D65206F66667365743A0020204D3218
:1017F0003035204200416476616E6365643A204270
:101800003C6D696E5F7365676D656E745F74696D5D
:10181000655F75733E20533C6D696E5F66656564F8
:10182000726174653E20543C6D696E5F74726176BE
:10183000656C5F66656564726174653E20583C6DD9
:1018400061785F785F6A65726B3E20593C6D6178A4
:101850005F795F6A65726B3E205A3C6D61785F7A92
:101860005F6A65726B3E20453C6D61785F655F6ABB
:1018700065726B3E0020204D3230342050004163B1
:1018800063656C65726174696F6E2028756E69742A
:10189000732F7332293A20503C7072696E745F6105
:1018A0006363656C3E20523C726574726163745F61
:1018B000616363656C3E20543C74726176656C5F55
:1018C000616363656C3E0020204D3230312058004A
:1018D0004D6178696D756D20416363656C657261FA
:1018E00074696F6E2028756E6974732F7332293A8C
:1018F0000020204D3230332058004D6178696D75DD
:101900006D206665656472617465732028756E6903
:1019100074732F73293A0053746570732070657265
:1019200020756E69743A0020204D323030204430EA
:101930000A0020204D323030204400204469736179
:10194000626C65640A0046696C616D656E74207333
:10195000657474696E67733A0020286D6D290020E4
:1019600020473231202020203B20556E697473209F
:10197000696E206D6D006F70656E00545249474767
:10198000455245440066696C616D656E74007A5F0E
:101990006D696E00795F6D617800785F6D617800C8
:1019A0005265706F7274696E6720656E6473746FD0
:1019B00070207374617475730A00486F6D696E6787
:1019C000204661696C6564005761726E696E673AA2
:1019D00020486F6D696E672042756D70204469768E
:1019E00069736F72203C20310A0020436F756E745A
:1019F00020583A0023646566696E65204445464177
:101A0000554C545F004B6420004B6920004B702004
:101A100000504944204175746F74756E6520666985
:101A20006E69736865642120507574207468652040
:101A30006C617374204B702C204B6920616E6420A4
:101A40004B6420636F6E7374616E74732066726F83
:101A50006D2062656C6F7720696E746F20436F6EC6
:101A600066696775726174696F6E2E680A00504905
:101A700044204175746F74756E65206661696C658C
:101A800064212074696D656F75740A0050494420A3
:101A90004175746F74756E65206661696C6564214B
:101AA0002054656D706572617475726520746F6F16
:101AB00020686967680A00204B643A2000204B695F
:101AC0003A2000204B703A20000A20436C61737367
:101AD000696320504944200A000A204E6F206F7627
:101AE000657273686F6F740A002054753A20002085
:101AF0004B753A200020643A200020626961733AF5
:101B00002000504944204175746F74756E652073D0
:101B1000746172740A00453100626564002C2073A0
:101B2000797374656D2073746F70706564212048DB
:101B300065617465725F49443A2000486561746963
:101B40006E67204661696C65640048656174696E02
:101B500067206661696C656400544845524D414C8C
:101B60002052554E4157415900546865726D616C61
:101B70002052756E61776179004572723A204D414D
:101B80005854454D50004D415854454D50207472A5
:101B900069676765726564004572723A204D494E07
:101BA00054454D50004D494E54454D502074726976
:101BB00067676572656400202F002042403A00206C
:101BC000403A0020573A0000803B4400803B4400EC
:101BD000002041000096420000A0420000A0420008
:101BE00000484400000243D0070000D00700006412
:101BF0000000004B0000000000FA430000FA430020
:101C000000000000004842000048420000804002FE
:101C100002040000A0400000A0400000004000C0FE
:101C200000440000FF430000C8430101FF00000022
:101C300001000000010000800055555500000040E3
:101C40000033333300AAAA2A00499224000000205E
:101C500000C7711C0099991900D1451700555515F9
:101C6000003BB113002449120011111100000010B3
:101C7000000F0F0F00E3380E0043790D00CCCC0CA1
:101C800000C3300C00E8A20B0064210B00AAAA0AD2
:101C900000703D0A009DD80900427B09009224098A
:101CA00000DCD30800888808001042080000000803
:101CB00000F0C107008787070075500700711C07F7
:101CC000003EEB0600A1BC060069900600666606B1
:101CD00000703E06006118060017F4050074D10577
:101CE000005BB00500B29005006272050055550515
:101CF0000078390500B81E0500050505004EEC0406
:101D00000087D40400A1BD040090A70400499204F8
:101D100000C17D0400EE690400C756040044440479
:101D2000005C32040008210400411004000000049B
:101D3000003FF00300F8E0030026D20300C3C30312
:101D400000CCB503003AA803000A9B0300388E03B9
:101D500000C08103009F750300D0690300505E033B
:101D6000001D53030034480300913D030033330347
:101D70000016290300381F030097150300300C03D9
:101D800000030303000BFA020049F10200BAE80263
:101D9000005CE002002DD802002DD0020059C802DC
:101DA00000B0C0020031B90200DAB10200AAAA02F2
:101DB00000A0A30200BC9C0200FA9502005C8F0206
:101DC00000DF88020082820200457C020027760242
:101DD0000027700200436A02007C640200D05E02A9
:101DE000003F590200C8530200FFFDFCFAF8F6F468
:101DF000F2F0EEECEAE9E7E5E3E1E0DEDCDAD9D7A0
:101E0000D5D4D2D0CFCDCBCAC8C7C5C3C2C0BFBD41
:101E1000BCBAB9B7B6B4B3B2B0AFADACAAA9A8A6B4
:101E2000A5A4A2A1A09E9D9C9A99989795949392FF
:101E3000908F8E8D8B8A8988878684838281807F2C
:101E40007E7D7B7A797877767574737271706F6E38
:101E50006D6C6B6A696867666564636261605F5E2A
:101E60005D5C5B5A5958585756555453525150500F
:101E70004F4E4D4C4B4A4A494847464645444342DB
:101E80004241403F3E3E3D3C3B3B3A393838373695
:101E90003535343332323130302F2E2E2D2C2B2B42
:101EA0002A292928272726252524232322212120E2
:101EB000201F1E1E1D1C1C1B1B1A19191818171673
:101EC00016151514131312121111100F0F0E0E0DFB
:101ED0000D0C0C0B0A0A0909080807070606050578
:101EE00004040303020201000024F4D43050C38E22
:101EF00020C2A24017828B7011127A910D816CD989
:101F00000AA861E108C7586607615143061E4B5D88
:101F100005C145A7041A411104093D9803713931DF
:101F2000034036DB0265339102D4305402802E1D0B
:101F300002632CEE01752AC501B028A0011027818B
:101F4000018F2564012B244B01E0223401AC211FB9
:101F5000018D200D01801FFC00841EED00971DDF08
:101F600000B81CD200E61BC600201BBC00641AB2DD
:101F700000B219A8000A19A0006A189900D1179197
:101F80000040178B00B516840031167E00B315791A
:101F9000003A157300C7146F0058146A00EE1366F8
:101FA000008813630025135E00C7125B006C125794
:101FB0000015125400C111510070114F0021114B36
:101FC00000D61049008D1047004610440002104210
:101FD00000C00F4000800F3E00420F3C00060F3B48
:101FE00000CB0E3800930E37005C0E3500270E3400
:101FF00000F30D3200C10D3100900D3000600D2E48
:1020000000320D2D00050D2C00D90C2B00AE0C2933
:1020100000850C29005C0C2700350C27000E0C26CF
:1020200000E80B2400C40B2400A00B23007D0B232D
:10203000005A0B2100390B2100180B2000F80A1F51
:1020400000D90A1E00BB0A1E009D0A1D00800A1D41
:1020500000630A1C00470A1B002C0A1B00110A1A05
:1020600000F7091A00DD091900C4091900AB0919A4
:1020700000920917007B091800630917004C091624
:102080000036091600200916000A091500F5081582
:1020900000E0081400CC081400B8081400A40814C8
:1020A00000900813007D0812006B081300580812F6
:1020B000004608120034081100230811001208110C
:1020C0000001081100F0071000E0071000D0071011
:1020D00000C0071000B0070F00A107100091070E05
:1020E0000083070F0074070F0065070E0057070EE7
:1020F0000049070E003B070D002E070E0020070DBC
:102100000013070D0006070D00F9060C00ED060D83
:1021100000E0060C00D4060C00C8060C00BC060C3F
:1021200000B0060C00A4060B0099060C008D060BEF
:102130000082060B0077060B006C060B0061060A96
:102140000057060B004C060A0042060A0038060A31
:10215000002E060A0024060A001A060A00100609C4
:102160000007060A00FD050900F4050900EB050952
:1021700000E2050900D9050900D0050900C70509D5
:1021800000BE050900B5050800AD050800A5050954
:10219000009C050800940508008C050800840508CB
:1021A000007C050800740508006C0507006505083B
:1021B000005D050700560508004E050700470507A6
:1021C000004005080038050700310507002A05070B
:1021D00000230507001C050600160507000F05076C
:1021E000000805060002050700FB040600F50407C9
:1021F00000EE040600E8040600E2040700DB040623
:1022000000D5040600CF040600C9040600C3040676
:1022100000BD040600B7040600B1040500AC0406C6
:1022200000A6040600A00405009B04060095040512
:1022300000900406008A0405008504050080040659
:10224000007A04050075040500700405006B0405A0
:102250000066040500610405005C040500570405E0
:1022600000520405004D0405004804050043040520
:10227000003E0404003A040500350405003004045F
:10228000002C04050027040400230405001E040498
:10229000001A04040016040500110404000D0404CF
:1022A00000090405000404040000040400FC030405
:1022B00000F8030400F4030400F0030400EC03043A
:1022C00000E8030400E4030400E0030400DC03046A
:1022D00000D8030400D4030400D0030400CC03049A
:1022E00000C8030300C503030024F404D9201BC461
:1022F0000C5C0E9804C4095F0265077101F405F9CE
:1023000000FB04B30048048700C10369005803556B
:102310000003034500BE023A008402310053022A42
:10232000002902250004022000E4011C00C8011954
:1023300000AF01170098011400840113007101100F
:10234000006101100051010E0043010D0036010B28
:10235000002B010B0020010B00150109000C0109E5
:102360000003010800FB000800F3000800EB000771
:1023700000E4000600DE000600D8000600D20006D9
:1023800000CC000500C7000500C2000500BD000428
:1023900000B9000400B5000400B1000400AD000461
:1023A00000A9000400A5000300A20003009F000490
:1023B000009B0003009800030095000200930003B7
:1023C00000900003008D0002008B000300880002D3
:1023D000008600020084000300810002007F0002EA
:1023E000007D0002007B00020079000200770001FE
:1023F0000076000200740002007200010071000209
:10240000006F0002006D0001006C0002006A000114
:10241000006900020067000100660001006500011C
:102420000064000200620001006100010060000120
:10243000005F0002005D0001005C0001005B000124
:10244000005A000100590001005800010057000126
:102450000056000100550001005400010053000027
:102460000053000100520001005100010050000122
:10247000004F0001004E0000004E0001004D000121
:10248000004C0001004B0000004B0001004A00011D
:102490000049000100480000004800010047000119
:1024A0000046000000460001004500000045000114
:1024B000004400010043000000430001004200000E
:1024C0000042000100410000004100010040000105
:1024D000003F0000003F0001003E0000003E000100
:1024E000003D0000003D0001003C0000003C0000F9
:1024F000003C0001003B0000003B0001003A0000EE
:10250000003A0001003900000039000100380000E5
:1025100000380000003800010037000000370001DB
:1025200000360000003600000036000100350000D3
:1025300000350000003500010034000000340000C8
:1025400000340001003300000033000000330001BC
:1025500000320000003200000032000100310000B3
:1025600000310000003100010030000000300000A8
:1025700000300001002F0000002F0000002F00009D
:10258000002F0001002E0000002E0000002E000190
:10259000002D0000002D0000002D0000002D000186
:1025A000002C0000002C0000002C0000002C00017A
:1025B000002B0000002B0000002B0000002B00016E
:1025C000002A0000002A0000002A0000002A000162
:1025D0000029000000290000002900000029000057
:1025E0000029000100280000002800000028000049
:1025F000002800000028000100270000002700003C
:10260000002700000027000000270001002600002E
:102610000026000000260000002600000026000121
:102620000025000000250000002500000025000016
:102630000025000000250001002400000024000007
:1026400000240000002400000024000100230000FA
:1026500000230000002300000023000000230000EE
:1026600000230000002300010022000000220000DF
:1026700000220000002200000022000000220001D1
:1026800000210000002100000021000000210000C6
:1026900000210000002100000021000100200000B6
:1026A00000200000002000000020000000200000AA
:1026B000002000000020000000200001001F00009A
:1026C000001F0000001F0000001F0000001F00008E
:1026D000001F0000001F0001001E0000001E00007F
:1026E000001E0000001E00000039300000332500ED
:1026F0000087190000B00F0000DB080000BD0400D7
:1027000000740200003F0100001000C90210012CFB
:10271000014001220170011801B0010E01F0010415
:10272000015002FA00B002F0003003E600D003DCF2
:10273000009004D2007005C800A006BE000008B4D6
:1027400000B009AA00D00BA000600E960060118CAA
:10275000000015820020197800C01D6E00A02264C0
:1027600000B0275A00902C500000314600E0343C65
:102770000010383200903A2800603C1E00A03D1442
:1027800000803E0A00203F00002053697A653A200D
:102790000050726F62696E67204661696C65640003
:1027A000205A3A200020593A200042656420583AC5
:1027B000200020746F6F206C6F6E672065787472D4
:1027C0007573696F6E2070726576656E7465640AE4
:1027D0000020636F6C6420657874727573696F6E26
:1027E0002070726576656E7465640A005072696E59
:1027F0007420506175736564007C3C3E5E2B3D3FE8
:102800002F5B5D3B2C2A225C0043616E6E6F74204F
:102810006F70656E20737562646972200053442086
:1028200063617264206F6B0A006F70656E526F6F28
:1028300074206661696C65640A00766F6C756D65FD
:102840002E696E6974206661696C65640A004E6F5A
:1028500020534420636172640A004D323320257393
:102860000046696C652073656C65637465640A0075
:1028700046696C65206F70656E65643A2000454E50
:102880004420535542524F5554494E450A00222088
:10289000706F73002220706172656E743A2200536B
:1028A0005542524F5554494E452043414C4C20749B
:1028B00061726765743A220053756263616C6C20C3
:1028C0004F766572666C6F77004578636565646501
:1028D00064206D617820535542524F5554494E45FE
:1028E0002064657074683A310A0057726974696EC1
:1028F0006720746F2066696C653A20006F70656EA2
:10290000206661696C65642C2046696C653A20001C
:102910005344207072696E74696E672062797465C1
:1029200020004E6F74205344207072696E74696E7B
:10293000670A00667265736800646F696E67004EAF
:102940006F7720002020506C616E6E657242756654
:1029500066657242797465733A2000204672656537
:10296000204D656D6F72793A2000436F6D70696C10
:1029700065643A2053657020203120323032310AAC
:1029800000204C61737420557064617465643A2052
:10299000323032302D30352D3134207C2041757469
:1029A000686F723A2054696E794D616368696E652B
:1029B0007333440A00322E302E355F4457370A00F5
:1029C0004D61726C696E0020536F66747761726539
:1029D0002052657365740A00205761746368646FE0
:1029E000672052657365740A002042726F776E200B
:1029F0006F75742052657365740A0020457874659C
:102A0000726E616C2052657365740A00506F776551
:102A10007255700A006175746F25632E6700473226
:102A2000385859004D31303031006572726F722064
:102A300077726974696E6720746F2066696C650AC5
:102A400000446F6E6520736176696E672066696CFD
:102A5000652E0A004D323900656E6473746F7073B1
:102A6000206869743A200050726F62696E67204670
:102A700061696C65640A00486F6D65202573257374
:102A8000257320466972737400220A00556E6B6EBE
:102A90006F776E20636F6D6D616E643A2022002047
:102AA0004500205900204D3932205800544D334400
:102AB00020453520506C75732D4A2052656164792C
:102AC0002E005072696E74696E672E2E2E006E6F26
:102AD00074696669636174696F6E200020453A000D
:102AE000205A3A0020593A0070012C019001270128
:102AF000B0012201C0011D01F001180110021301F3
:102B000030020E016002090190020401C002FF00C0
:102B10000003FA004003F5008003F000D003EB004F
:102B20002004E6007004E100E004DC004005D7006A
:102B3000C005D2004006CD00D006C8008007C30003
:102B40003008BE00F008B900C009B400B00AAF00F8
:102B5000B00BAA00D00CA500000EA000500F9B00E7
:102B6000C01096005012910000148C00C015870010
:102B7000B0178200B0197D00D01B7800001E7300D2
:102B800040206E0090226900F024640040275F001E
:102B900090295A00E02B5500102E500020304B0099
:102BA00010324600E033410090353C0010373700CA
:102BB00070383200A0392D00B03A2800A03B230025
:102BC000603C1E00103D1900903D1400103E0F00A7
:102BD000703E0A00C03E0500003F0000403FFBFF82
:102BE000803FF6FFC03FF1FF0000210024002700D6
:102BF0002A002D003000330001010000040107010C
:102C00000A0100002200250028002B002E003100C0
:102C1000340002010000050108010B010000200042
:102C20002300260029002C002F00320000010000A4
:102C3000030106010901050505050705080808083F
:102C4000020202020A0A0808040404040101010144
:102C5000010101010303030303030303040707073F
:102C60000C0C0C0C0C0C0C0C0202020206060606E4
:102C7000060606060B0B0B0B0B0B0B0B01021020B1
:102C800020080810204010204080020102010804A2
:102C90000201010204081020408080402010080436
:102CA000020180040201804020100804020108048F
:102CB00002010102040810204080010204081020D3
:102CC000408000000A0B02090C0D0E0807030401E6
:102CD00000000000000000000000000000000000F4
:102CE00000000000000000000000000000001211C1
:102CF00010000000000000000000000000000000C4
:102D000000000000000000009E000A0111241FBE08
:102D1000CFEFD1E2DEBFCDBF00E00CBF17E0A0E0F7
:102D2000B2E0ECEBF4E402E00BBF02C007900D92BE
:102D3000A83FB107D9F72BE1A8EFB7E001C01D927A
:102D4000A334B207E1F716E1C5E8D6E100E006C01A
:102D500021970109802FFE010F94821EC438D107EC
:102D600080E00807A9F70F94C80B0D944C220C942F
:102D700000008091751690917616891B877089F4F2
:102D80008091530D81110DC08091900B9091910B0A
:102D9000892B39F481E09091920B911103C080E06E
:102DA000089581E00895CF93DF93FB01D9019081CD
:102DB0009130E9F09430A8F0945090832D913C919B
:102DC0001197B9016F5F7F4F11967C936E93420FFD
:102DD000531FEA0188838D919C918F35910564F48E
:102DE00006C08C3539F49C5F9083943039F7DF91BD
:102DF000CF9108958B3311F781E08083F8CF9091C4
:102E00008F0BE92FF0E0E35AF84E80839F5F9430F8
:102E100040F490938F0B8091530D8F5F8093530DEF
:102E2000089510928F0BF7CF282F909112098330BD
:102E300021F495FD0FC094FD0FC0892F90E0B0E004
:102E4000A0E004C0B695A795979587952A95D2F7E7
:102E50008170089581E0089580E00895CF92DF9217
:102E6000EF92FF92CF93DF93EC016A017B0129E699
:102E700030E040E251ECCB01B6010F94EB2087FD2E
:102E800023C023E030E04AEF53E4C701B6010F94BA
:102E9000BB171816CCF0C880D980EA80FB8029E6E1
:102EA00030E040E751ECC701B6010F94EB2087FDFD
:102EB0000BC0C1E023E030E04AEF53E4C701B601A4
:102EC0000F94BB1718160CF4C0E08C2FDF91CF9134
:102ED000FF90EF90DF90CF900895CF92DF92EF9226
:102EE000FF92CF93DF93EC01CC80DD80EE80FF80FA
:102EF00029E630E040E251ECC701B6010F94EB2027
:102F000087FD23C023E030E04AEF53E4C701B60158
:102F10000F94BB171816CCF0C880D980EA80FB80CC
:102F200029E630E040E751ECC701B6010F94EB20F1
:102F300087FD0BC0C1E023E030E04AEF53E4C70156
:102F4000B6010F94BB1718160CF4C0E08C2FDF915C
:102F5000CF91FF90EF90DF90CF9008958F929F9246
:102F6000AF92BF92CF92DF92EF92FF92C090E109B1
:102F7000D090E209E090E309F090E40920E030E02D
:102F8000A901C701B6010F94BB178823E1F1A7017E
:102F9000960160E070E080E89FE30F94851F6B016D
:102FA0007C018090E5099090E609A090E709B09037
:102FB000E80920E030E0A901C501B4010F94BB1776
:102FC000882329F1A501940160E070E080E89FE387
:102FD0000F94851FC092B708D092B808E092B90844
:102FE000F092BA086093BB087093BC088093BD0848
:102FF0009093BE08FF90EF90DF90CF90BF90AF907E
:103000009F908F900895C12CD12C7601CACF60E09B
:1030100070E0CB01DFCF129A0895269A2E9A089578
:103020008F929F92AF92BF92CF92DF92EF92FF92D8
:103030000F931F93CF93DF93CDB7DEB72C970FB6C7
:10304000F894DEBF0FBECDBF8B0140E050E068E4D6
:1030500072E44D835E836F83788740E050E060EADE
:1030600070E449875A876B877C878130B9F1823059
:1030700009F459C020E030E040E050E460917F0264
:103080007091800280918102909182020F948B1E38
:103090004B017C0120E030E048EC53E40F94EB203E
:1030A000181634F4812C912C88ECE82E93E4F92E38
:1030B000F801A084B184C284D3849401A701B5012E
:1030C000C6010F94EB20181614F054016701C501D6
:1030D000D60189839A83AB83BC8348C0BE01675FF6
:1030E0007F4FC80108960E9468BDB8016C5F7F4F92
:1030F000AE014B5F5F4FC8010E9446BD0E9411C0E8
:103100002C960FB6F894DEBF0FBECDBFDF91CF91E6
:103110001F910F91FF90EF90DF90CF90BF90AF90F5
:103120009F908F900895F8012085318542855385C1
:1031300060917F0270918002809181029091820261
:103140000F948B1E6B017C0120E030E048EC53E4CF
:103150000F94BB1787FD06C0C12CD12C28ECE22EA2
:1031600023E4F22EC982DA82EB82FC82BE01675F21
:103170007F4FCE010196B7CFE8E2FAE010821182CC
:103180001282138214820C9489F4EF92FF920F93AF
:103190001F93CF93DF93CDB7DEB78C01EDB6FEB6AC
:1031A0000F94081701962DB73EB7281B390B0FB6A1
:1031B000F8943EBF0FBE2DBF8DB79EB70196B801E4
:1031C0000F9401170E94C8EF0FB6F894FEBE0FBE11
:1031D000EDBEDF91CF911F910F91FF90EF90089579
:1031E0008C38910514F08CE890E0909392118093C4
:1031F00091110C94769B2F923F924F925F926F9217
:103200007F928F929F92AF92BF92CF92DF92EF9276
:10321000FF920F931F93CF93DF933B014C01E42E5A
:10322000F12C5701AA0CBB1CAA0CBB1CF501E958D8
:10323000FD4F208031804280538080913702811180
:1032400051C020E030E04AE754E4C201B1010F94DC
:103250008A1E8B01D82FC92F20E030E04AE754E4C2
:10326000C201B1010F948B1E2B016C0198014D2FEF
:103270005C2FB301C4010F94BB1787FD0EC09201F0
:10328000A601B301C4010F94EB208301D82DC92DF1
:1032900018161CF48201DC2DCD2DF501E958FD4FE7
:1032A000C801AD2FBC2F80839183A283B383C70154
:1032B000880F991F880F991F855E9C4FDF91CF91D2
:1032C0001F910F91FF90EF90DF90CF90BF90AF9044
:1032D0009F908F907F906F905F904F903F902F9036
:1032E0000C946ABC413099F0423011F100911F02F8
:1032F00010912002D0912102C091220240902B0215
:1033000050902C02C0902D02D0902E02AFCF009191
:10331000230210912402D0912502C09126024090F0
:103320002F0250903002C0903102D09032029ECFD6
:103330000091270210912802D0912902C0912A02FF
:103340004090330250903402C0903502D090360243
:103350008DCF2F923F924F925F926F927F928F927A
:103360009F92AF92BF92CF92DF92EF92FF920F9314
:103370001F93CF93DF93D62FC72FFC0180809180BE
:10338000A280B380C501B40120E831E541E050E0FE
:103390000F94FF1DC9016DE671E00F946E1E6B0165
:1033A0007C01C501B40120E13EE040E050E00F9413
:1033B000FF1DCA01B90128E130E040E050E00F9460
:1033C000FF1D362E272E062F172F8CE3482E512C4B
:1033D000612C712CC501B401A30192010F94FF1D52
:1033E000B62EA72ECA01B901A30192010F94FF1DA9
:1033F000CB01C114D10479F1AF92BF927F936F9347
:103400002F923F92FF92EF92DF92CF9286EC93E160
:103410009F938F93CF93DF930F9452178DB79EB7DF
:103420000E960FB6F8949EBF0FBE8DBF8D2F9C2FAA
:10343000DF91CF911F910F91FF90EF90DF90CF9090
:10344000BF90AF909F908F907F906F905F904F90C4
:103450003F902F900895E114F104C9F0AF92BF920C
:103460007F936F932F923F92FF92EF928AEC93E1BA
:103470009F938F93CF93DF930F945217EDB7FEB7BF
:103480003C960FB6F894FEBF0FBEEDBFCFCF012B19
:10349000B9F0AF92BF927F936F932F923F928EECD1
:1034A00093E19F938F93CF93DF930F9452178DB730
:1034B0009EB70A960FB6F8949EBF0FBE8DBFB6CFCB
:1034C000892BA9F0AF92BF927F936F9382ED93E126
:1034D0009F938F93CF93DF930F945217EDB7FEB75F
:1034E00038960FB6F894FEBF0FBEEDBF9FCFAF92D8
:1034F000BF9286ED93E19F938F93CF93DF930F94C9
:1035000052170F900F900F900F900F900F908ECF3B
:103510002F923F924F925F926F927F928F929F92E3
:10352000AF92BF92CF92DF92EF92FF920F931F93D1
:10353000CF93DF93CDB7DEB760970FB6F894DEBFB9
:103540000FBECDBF8B876C87042F122F282F30E042
:103550003E872D87462F50E05A87498785E0982E71
:10356000929EC001939E900D1124988B8F87FA0133
:10357000E80FF91FEE0FFF1FEE0FFF1FE758F24F86
:1035800060817181828193819B01AC010F947D21C7
:10359000882309F445C14B85400F6C85610F949ECB
:1035A000C0011124E985FA85E80FF91FEE0FFF1F0E
:1035B000EE0FFF1FE758F24FC080D180E280F3800A
:1035C000040F909EA0011124E985FA85E40FF51FF0
:1035D000EE0FFF1FEE0FFF1FE758F24F00819180A3
:1035E00082807380262F30E0EF85F889E20FF31F89
:1035F000EE0FFF1FEE0FFF1FE758F24F2080718183
:10360000798372817A8373817B83610F70E0EF85A8
:10361000F889E60FF71FEE0FFF1FEE0FFF1FE758A9
:10362000F24FF88BEF87F081FC83EF85F889F18109
:10363000FD83EF85F889F281FE83EF85F889F381B8
:10364000FF83FC01E20FF31FEE0FFF1FEE0FFF1FC2
:10365000E758F24F20812887A180B2806380FA0169
:10366000E60FF71FEE0FFF1FEE0FFF1FE758F24F99
:103670004080518032801381202F392D482D572DC5
:10368000602F792D882D972D0F947D21882321F08F
:1036900000E0912C812C712C9601A701B601C70185
:1036A0000F947D21882321F0C02ED92CE82CF72CF3
:1036B0002C813D814E815F816C817D818E819F81D6
:1036C0000F947D21882321F01C821D821E821F827F
:1036D000222D39814A815B81622D79818A819B818A
:1036E0000F947D21882339F02C803D8139834E81D0
:1036F0004A835F815B839201432D512FB201832D59
:10370000912F0F947D21882321F0412C512C312CB5
:1037100010E028853A2D4B2D562D68857A2D8B2D5E
:10372000962D0F947D21882321F04886A52CB32C5B
:10373000612E85E02D853E85829FF001839FF00DEF
:10374000112449855A85E40FF51FEE0FFF1FEE0F78
:10375000FF1FE758F24FFA87E9879601A701B601E4
:10376000C7010F948B1E202F392D482D572D0F94F4
:103770008A1E6B017C01222D39814A815B81622D79
:1037800079818A819B810F948B1E2C813D814E8192
:103790005F810F948A1E9B01AC01C701B6010F9493
:1037A0008B1E6B017C0128853A2D4B2D562D68858B
:1037B0007A2D8B2D962D0F948B1E9201432D512F18
:1037C0000F948A1E9B01AC01C701B6010F948B1E9A
:1037D00020E030E040E450E40F94851FE985FA854D
:1037E00060837183828393836C858B8560960FB62B
:1037F000F894DEBF0FBECDBFDF91CF911F910F9127
:10380000FF90EF90DF90CF90BF90AF909F908F9000
:103810007F906F905F904F903F902F900C94BAEEF6
:1038200060960FB6F894DEBF0FBECDBFDF91CF918B
:103830001F910F91FF90EF90DF90CF90BF90AF90CE
:103840009F908F907F906F905F904F903F902F90C0
:103850000895CF92DF92EF92FF920F931F93CF9331
:10386000DF936B017A01EC01C85FD74F28813CE000
:10387000389F8001399F100D112427FF24C0FB01C0
:103880001182108288818F5F888388819801280F38
:10389000311D87FD3A95C90120916E16F601281752
:1038A000190629F024F088818C300CF43CC080810A
:1038B0009181049680349C4908F475C0F60180819A
:1038C0009181049672C088819801280F311D87FD6F
:1038D0003A95C90120916E162817190699F294F2AB
:1038E0008881A801480F511D87FD5A95FA01EE0FF6
:1038F000FF1FE40FF51FEE5FF94E808187FFC2CFF7
:103900008881F801E80FF11D87FDFA95CF01EE0FD0
:10391000FF1FE80FF91FEE5FF94E808160E08F779F
:103920000E9401F3AFCF808191812881A801420FCD
:10393000511D27FD5A959A01FA01EE0FFF1FE20F64
:10394000F31FEE5FF94E21813281820F931FF70141
:103950009183808388819801280F311D87FD3A95D6
:10396000F901EE0FFF1FE20FF31FEE5FF94E8081AA
:1039700087FF20C08881080F111D87FD1A95F80167
:10398000EE0FFF1FE00FF11FEE5FF94E808161E047
:103990008F77DF91CF911F910F91FF90EF90DF9084
:1039A000CF900C9401F380E49CE9F701918380832C
:1039B0008FEF8883DF91CF911F910F91FF90EF9050
:1039C000DF90CF90089580910109909102090097AE
:1039D00031F04AE050E070E060E00D94E11560E005
:1039E00070E0CB0108958091010990910209009740
:1039F00031F04AE050E070E060E00D94B31460E014
:103A000070E0CB0108950E94F31C97FD0CC00E944A
:103A1000F31C6F3F71058105910509F034F40E9494
:103A2000F31C862F089580E008958FEF089580910C
:103A3000010990910209892B41F00E94031D91E038
:103A4000811101C090E0892F089591E0FCCF0E9480
:103A5000F31CCB010895CF92DF92EF92FF926B019E
:103A60007C01463019F51092230A1092240A109214
:103A7000250A1092260A1092270A0E94769B20E0BF
:103A800030E0A901C701B6010F94BB1787FF1DC025
:103A9000C12CD12C7601C701B6010F94F820CB01BF
:103AA000FF90EF90DF90CF900C94F0180E94BC181C
:103AB00020E030E0A901C701B6010F94BB1787FFD2
:103AC00015C0C12CD12C760121C020E030E04CE0A3
:103AD00053E4C701B6010F94EB201816E4F6C12C8D
:103AE000D12C9CE0E92E93E4F92ED5CF20E030E0F4
:103AF00046E953E4C701B6010F94EB20181634F4DD
:103B0000C12CD12C86E9E82E83E4F82EC701B6013A
:103B10000F94F820CB01FF90EF90DF90CF900C94A2
:103B200072A5FF920F931F93CF93DF931F92CDB790
:103B3000DEB7F82E0AEA15E141E050E0B801CE0107
:103B400001960F94ED1689818F1108C081E00F90C6
:103B5000DF91CF911F910F91FF9008950F5F1F4F3D
:103B600085E1033C180741F780E0F1CF2F923F92A7
:103B70004F925F926F927F928F929F92AF92BF927D
:103B8000CF92DF92EF92FF920F931F93CF93DF9329
:103B900000D0CDB7DEB78090770290907802A090E9
:103BA0007902B0907A0240907B0250907C02609043
:103BB0007D0270907E02C0907F02D0908002E090E3
:103BC0008102F09082020E9482A50E944DA609ED1A
:103BD00015E18FE192E09B838A838DEC282E85E1AD
:103BE000382E198289810E9452B8F80185919591E9
:103BF000A591B491EA81FB8181939193A193B193B3
:103C0000FB83EA83F10185919591A591B491EA81B5
:103C1000FB8180879187A287B387F981FF5FF98352
:103C20000C5F1F4F84E0280E311CF330D9F66091F1
:103C3000DD097091DE098091DF099091E0090E9411
:103C400047EE0E94AE170E94D0A5A5019401609195
:103C50007702709178028091790290917A020F94A4
:103C6000BB1781111CC0A301920160917B0270916E
:103C70007C0280917D0290917E020F94BB1781118E
:103C80000EC020917F0230918002409181025091BC
:103C90008202C701B6010F94BB178823B9F00F90B9
:103CA0000F900F90DF91CF911F910F91FF90EF90A8
:103CB000DF90CF90BF90AF909F908F907F906F904C
:103CC0005F904F903F902F900C9411C00F900F90E9
:103CD0000F90DF91CF911F910F91FF90EF90DF90A8
:103CE000CF90BF90AF909F908F907F906F905F909C
:103CF0004F903F902F9008950F931F938091241120
:103D0000813019F50E947DF40091060A1091070A8E
:103D10002091080A3091090A601B710B820B930BEA
:103D200028EE33E040E050E00F94FF1D60910A0A56
:103D300070910B0A80910C0A90910D0A620F731F0B
:103D4000841F951F1F910F91089560910E0A709125
:103D50000F0A8091100A9091110AD6CF1092241167
:103D60001092060A1092070A1092080A1092090A85
:103D700010920E0A10920F0A1092100A1092110A55
:103D800010920A0A10920B0A10920C0A10920D0A55
:103D90000895CF92DF92EF92FF92CF93DF936B0162
:103DA0007C01C42F20E030E0A9010F94BB1720E074
:103DB00030E0A90187FD14C020E030E048EC52E477
:103DC000C701B6010F94EB2024E630E040E050E05C
:103DD000181634F0C701B6010F94F71F9B01AC0110
:103DE000C230A0F4D0E0C15FD14FAFEFB0E00F948C
:103DF000401E24E630E040E050E00F94211E2F3FAB
:103E0000310519F010F02FEF30E02883DF91CF91CA
:103E1000FF90EF90DF90CF90089590918811977068
:103E200081E0973009F080E00895AF92BF92CF9281
:103E3000DF92EF92FF920F931F93CF93DF93EC01EA
:103E4000C12C80E3D82EE12CF12C02E8A12C90E2C9
:103E5000B92E15E00093F616C092F716D092F81618
:103E6000E092F916F092FA16B0920017A092FF169F
:103E70001093F3160E9434DD8FEFC81AD80AE80AAF
:103E8000F80A88E2C81680E3D806E104F10411F7C5
:103E900040E050E360E070E0CE01DF91CF911F91F0
:103EA0000F91FF90EF90DF90CF90BF90AF900C9468
:103EB000E3DCCF93FC0120812B33B1F02091530D33
:103EC000243090F4C62FBC0180918F0BF0E68F9FB9
:103ED000C00111248E52944F0F94ED218C2F0E941B
:103EE000FF1681E0CF91089580E0FCCF8F929F92E2
:103EF000AF92BF92CF92DF92EF92FF920F931F93F8
:103F0000CF93DF931092B8091092B7092FE3209353
:103F1000300910922F0910922E0910923109109237
:103F2000320910923309109234099C01F9019081F1
:103F30002F5F3F4F9032D1F39E34C9F4818190EDD1
:103F4000980F9A3020F08D3211F08B3281F4329636
:103F50009F012F5F3F4F808180538A3008F46BC0F0
:103F60009F012F5F3F4F8081803209F466C0F0933C
:103F7000780DE093770D8F010F5F1F4FC0816AE2CC
:103F800070E0C8010F94D921009731F0FC013197FE
:103F900080818032E1F31182CD3421F0C43511F0FB
:103FA000C734E1F5F80180810F5F1F4F8032D1F3F4
:103FB00080538A3098F5C093300930E020E0AAE0C1
:103FC000AF014F5F5F4F8081082E000C990BC097A7
:103FD000A29FB001A39F700D11249C01260F371FD3
:103FE000FA01808180538A3058F330932F0920934F
:103FF0002E09DF0131968C918032D9F3CD3449F509
:104000002E31310539F0DCF42731310519F02C312E
:104010003105F9F4B093B809A093B709DF91CF91B6
:104020001F910F91FF90EF90DF90CF90BF90AF90D6
:104030009F908F900895F9018BCFF90191CF25378B
:1040400031053CF0273731052CF3203A83E038075F
:1040500009F3D091770D40E050E0BA0110E000E0A4
:10406000C12CD12C7601C394FD0131968C9188230B
:1040700009F47FC08132E1F4CD34D1F4203231052E
:10408000B9F4409331095093320960933309709326
:104090003409F093B809E093B70963E270E0CF0107
:1040A0000F94D921009709F4B9CFFC011082B6CF43
:1040B00081548A3108F058C0DF019D91903291F00F
:1040C000A0EDA90FAA30E8F09E3271F491819053CF
:1040D0009A30B8F00115110519F48F01015011093A
:1040E00090E013C0FD01E8CF9D3211F09B3291F7B3
:1040F0009181A0EDA90FAA3020F09E3259F792814C
:10410000E6CF9E2F9D1B309759F3A82FB0E04601B4
:10411000570104C0880C991CAA1CBB1C8A95D2F7B5
:10412000482959296A297B29AC5EB64F9C93808126
:104130008154DF018A3108F497CFDF018191882310
:1041400009F492CF90ED980F9A30B8F393ED980F51
:10415000923098F38B3289F3CD010196EC91E032E5
:1041600009F082CFDC01F8CF0115110501F78D01AF
:10417000DECF1093B8090093B709409331095093EB
:104180003209609333097093340948CF8091820BD0
:10419000811103C081E00E949EC080E0089580915B
:1041A000820B882319F080E00E949EC080E0089571
:1041B0004F925F926F927F928F929F92AF92BF9237
:1041C000CF92DF92EF92FF92CF93DF9300D000D097
:1041D0001F921F92CDB7DEB79E838D83DB01CD90FA
:1041E000DD90ED90FC9080916A1190916B11A091FF
:1041F0006C11B0916D1189839A83AB83BC839C0150
:10420000AD01C701B6010F948A1E2B013C01AD819F
:10421000BE818D909D90AD90BC90809166119091E3
:104220006711A0916811B09169118D839E83AF834E
:10423000B88729E630E040E251ECC301B2010F94A7
:10424000EB2087FDD3C023E030E04AEF53E4C30105
:10425000B2010F94BB1718160CF4C8C02D813E8113
:104260004F815885C501B4010F948A1E2B013C0172
:1042700029E630E040E751EC0F94EB2087FDB6C013
:1042800023E030E04AEF53E4C301B2010F94BB17BF
:1042900018160CF4ABC020E030E040E751E46D812B
:1042A0007E818F8198850F948A1E2B013C0120E02E
:1042B00030E040E450E40F94BB1787FF05C0412C69
:1042C000512C30E4632E762C27E137EB41ED58E397
:1042D000C301B2010F948A1E9B01AC01C501B40158
:1042E0000F94EB2087FD82C020E030E04AEF53E4DA
:1042F0006D817E818F8198850F948B1E2B013C01EF
:1043000020E030E848EF53E40F94EB2018163CF41B
:10431000412C20E8522E28EF622E23E4722E27E152
:1043200037EB41ED58E3C301B2010F948B1E9B01A3
:10433000AC01C501B4010F94BB1718160CF456C09C
:1043400020E030E040E251E469817A818B819C81F8
:104350000F948A1E4B015C0120E030E040E450E401
:104360000F94BB1787FF05C0812C912C90E4A92ED8
:10437000BA2C27E137EB41ED58E3C501B4010F94A6
:104380008A1E9B01AC01C701B6010F94EB2087FD8B
:104390002DC020E030E04AEF53E469817A818B81BF
:1043A0009C810F948B1E4B015C0120E030E848EFAC
:1043B00053E40F94EB2018163CF4812C80E8982EDF
:1043C00088EFA82E83E4B82E27E137EB41ED58E3C0
:1043D000C501B4010F948B1E9B01AC0191E0998340
:1043E000C701B6010F94BB1718160CF41982898106
:1043F00028960FB6F894DEBF0FBECDBFDF91CF91E8
:10440000FF90EF90DF90CF90BF90AF909F908F90F4
:104410007F906F905F904F9008958F929F92AF9290
:10442000BF92CF92DF92EF92FF92CF93DF93EC0196
:104430008090E70D9090E80DA090E90DB090EA0D06
:1044400020E030E0A901C501B4010F94BB17882317
:1044500009F454C0C880D980EA80FB80A701960186
:10446000C501B4010F94BB1718160CF04CC0209175
:10447000DE0D3091DF0D4091E00D5091E10DC7014F
:10448000B6010F94BB17882331F1C092DE0DD09294
:10449000DF0DE092E00DF092E10D2091E20D309100
:1044A000E30D4091E40D5091E50D688179818A8199
:1044B0009B810F9421189B01AC0160E070E080E8C3
:1044C0009FE30F948A1E60930E0270930F028093F5
:1044D00010029093110260910E0270910F02809170
:1044E000100290911102DF91CF91FF90EF90DF9039
:1044F000CF90BF90AF909F908F90089560E070E054
:1045000080E89FE3F0CF60E070E0CB01ECCF2F922A
:104510003F924F925F926F927F928F929F92AF9253
:10452000BF92CF92DF92EF92FF921F93CF93DF93D0
:1045300000D01F92CDB7DEB74A011901FC014080BF
:10454000518062807380FB01C080D180E280F38063
:1045500020917702309178024091790250917A024D
:10456000C301B2010F94BB1781110EC011E0A70166
:10457000960160917B0270917C0280917D02909106
:104580007E020F94BB17811110E080E1E7E7F2E0B3
:10459000AAE5BDE001900D928A95E1F7F4018080D3
:1045A0009180A280B38020910A0230910B02409149
:1045B0000C0250910D02C501B4010F94BB17882362
:1045C00079F18092620D9092630DA092640DB09289
:1045D000650D80920A0290920B02A0920C02B0929A
:1045E0000D0220E030E040E05FE360910111709146
:1045F000021180910311909104110F942118698385
:104600007A838B839C83CE0101960E9403BC80E158
:10461000E7E7F2E0AAE5BDE001900D928A95E1F7A7
:1046200040925A0D50925B0D60925C0D70925D0D40
:10463000C0925E0DD0925F0DE092600DF092610D20
:10464000F10120813181428153816091660D709129
:10465000670D8091680D9091690D0F948B1E60938A
:10466000660D7093670D8093680D9093690D60E0FF
:1046700070E080EA91E4112371F02AEF3EE74AE20C
:104680005FE360910511709106118091071190917F
:1046900008110F94211869837A838B839C83CE0140
:1046A00001960E9403BC80E1E7E7F2E0AAE5BDE0E5
:1046B00001900D928A95E1F70F900F900F900F9057
:1046C000DF91CF911F91FF90EF90DF90CF90BF903F
:1046D000AF909F908F907F906F905F904F903F90A2
:1046E0002F9008950F931F93CF93DF9300D000D0A6
:1046F0001F921F92CDB7DEB78C010E94A9F21D82D6
:104700001E821F82188620E030E040E05FE3609167
:104710007F027091800280918102909182020F94B9
:104720008B1E69837A838B839C839E012B5F3F4F13
:10473000AE014F5F5F4F6BE772E087E792E00E9448
:1047400087221D821E821F82188620E030E040E012
:104750005FE3F80160857185828593850F948B1ED8
:1047600069837A838B839C83B8016C5F7F4F9E0142
:104770002B5F3F4FAE014F5F5F4FC8010E94872202
:1047800028960FB6F894DEBF0FBECDBFDF91CF9154
:104790001F910F9108952F923F924F925F926F92C7
:1047A0007F928F929F92AF92BF92CF92DF92EF92C1
:1047B000FF920F931F93CF93DF93CDB7DEB7A097F0
:1047C0000FB6F894DEBF0FBECDBF8C011B01409029
:1047D0007702509078026090790270907A0280900F
:1047E0007B0290907C02A0907D02B0907E02DC0162
:1047F0008D919D910D90BC91A02D8D879E87AF8747
:10480000B88B9C01AD01C301B2010F948A1E6B01EC
:104810007C01D80114968D919D910D90BC91A02D95
:10482000898B9A8BAB8BBC8B9C01AD01C501B4010C
:104830000F948A1E6D8B7E8B8F8B988FD1018D91FB
:104840009D910D90BC91A02D8D839E83AF83B887E1
:104850009C01AD01C301B2010F948A1E698F7A8F4A
:104860008B8F9C8FD10114968D919D910D90BC9151
:10487000A02D89879A87AB87BC879C01AD01C501B4
:10488000B4010F948A1E6D8F7E8F8F8F98A3A7011E
:104890009601C701B6010F9421186B017C012D8987
:1048A0003E894F89588DCA01B9010F9421189B0187
:1048B000AC01C701B6010F948B1E4B015C012D8525
:1048C0003E854F8558896D817E818F8198850F94B3
:1048D0008A1E2B013C0129893A894B895C896985AB
:1048E0007A858B859C850F948A1E6B017C01A301C0
:1048F0009201C301B2010F9421182B013C01A701C1
:104900009601C701B6010F9421189B01AC01C301A8
:10491000B2010F948B1E0F9439216B017C01298DFC
:104920003A8D4B8D5C8DCA01B9010F9421182B0172
:104930003C012D8D3E8D4F8D58A1CA01B9010F94B8
:1049400021189B01AC01C301B2010F948B1E9B0186
:10495000AC01C501B4010F94EB201816A4F520E0BA
:1049600030E0A901C701B6010F94EB2087FF28C0F2
:10497000C701B601905820E030E040EA50E40F94BF
:10498000EB20181604F5B801C1010E94CB23A096B4
:104990000FB6F894DEBF0FBECDBFDF91CF911F9150
:1049A0000F91FF90EF90DF90CF90BF90AF909F90CE
:1049B0008F907F906F905F904F903F902F900895D1
:1049C000C701B601D8CF20E030E040E050E4C50197
:1049D000B4010F94EB2018161CF4C8010E94722336
:1049E00019821A821B821C82A801485F5F4FB8019E
:1049F0006C5F7F4F9E012F5F3F4FC8010E9487224F
:104A00002DEC3CEC4CEC5CE3C701B6010F94211893
:104A10009B01AC016091FD087091FE088091FF0838
:104A2000909100090F94211869837A838B839C836A
:104A300080916A0D81110E94D5F2A101485F5F4FFC
:104A4000B1016C5F7F4F9E012F5F3F4FC1010E94FC
:104A500087229DCF0F931F93CF938091010990914F
:104A600002090097E9F0FC018F01C1912C2F2F7DE5
:104A700081F0C53411F0C536B9F7F801108270E045
:104A800060E00F945513F801C083CF911F910F91EF
:104A9000089570E060E0CF911F910F910D94551330
:104AA00060E070E0CB01F1CF2FEB280F2A3108F046
:104AB00042C0E22FF0E08091310990913209A0913B
:104AC0003309B091340904C0B695A7959795879599
:104AD0002A95D2F780FD02C081700895EC5EF64FF2
:104AE000E081EE2329F18091770D9091780DE80F08
:104AF000F92FF11D808190ED980F9A3030F08E32B1
:104B000051F4818180538A3098F4F0930209E09344
:104B1000010981E008958D3211F08B3249F48181D1
:104B200090ED980F9A3088F38E3211F48281EACF9B
:104B3000F0E0E0E0EACF80E008950E945425882369
:104B400041F081E02091010930910209232B09F401
:104B500080E00895CF92DF92EF92FF926A017B018D
:104B60000E949D25882331F0FF90EF90DF90CF9039
:104B70000C942A25C701B601FF90EF90DF90CF90EB
:104B800008958F929F92AF92BF92CF92DF92EF9251
:104B9000FF920F931F93CF938AE5E82E8DE0F82EB6
:104BA00007E712E096E0C92E95E1D92EC0E088E52E
:104BB0008C0F0E949D25882309F4A7C00E942A25F6
:104BC0004B015C018C2F0E941417882309F493C0B9
:104BD000F8012081318142815381C501B4010F94D4
:104BE0008B1EF7016083718382839383CF5FF4E030
:104BF000EF0EF11C0C5F1F4F84E0C80ED11CC330B8
:104C0000B1F685E40E949D25882309F489C00E949D
:104C10002A256B017C0183E00E941417882371F020
:104C20002091830230918402409185025091860246
:104C3000C701B6010F948B1E6B017C01C092660DFB
:104C4000D092670DE092680DF092690D40E050E05F
:104C5000BA0186E40E94AA2520E030E0A9010F9461
:104C6000EB20181684F40E942A2520E030E040E76B
:104C700052E40F94851F60936502709366028093DF
:104C80006702909368028091D41083FD28C08091C0
:104C90006E0B882321F12091830230918402409190
:104CA0008502509186026091660D7091670D80912A
:104CB000680D9091690D0F948A1E20917B0B3091A5
:104CC0007C0B40917D0B50917E0B0F948B1E60935B
:104CD0007B0B70937C0B80937D0B90937E0BCF911D
:104CE0001F910F91FF90EF90DF90CF90BF90AF900A
:104CF0009F908F900895F6012081318142815381E8
:104D0000C501B4010F948A1E6CCFF8018081918196
:104D1000A281B381F70180839183A283B38366CF9D
:104D20008091830290918402A0918502B0918602C5
:104D30008093660D9093670DA093680DB093690DF5
:104D400085CFCF93DF93EB010E949D25882319F037
:104D50000E94F31CEB01CE01DF91CF910895CF9318
:104D6000DF93EB010E949D25882321F0DF91CF91F5
:104D70000C94271DCE01DF91CF910895CF93C62FBC
:104D80000E949D25882319F0CF910C94031D8C2F30
:104D9000CF910895CF93DF93C82FD62F0E949D25E2
:104DA000882321F0DF91CF910C94171D8C2F0E9446
:104DB0005425811101C08D2FDF91CF9108954F921D
:104DC0005F926F927F928F929F92AF92BF92CF929B
:104DD000DF92EF92FF920F931F93CF93DF93EC013B
:104DE0002091D3093091D4094091D5095091D60929
:104DF000688179818A819B810F948A1E6B017C0175
:104E00002091D7093091D8094091D9095091DA09F8
:104E10006C817D818E819F810F948A1E4B015C0184
:104E2000A701960160910202709103028091040231
:104E3000909105020F94BB17882309F45AC0C092C1
:104E40000202D0920302E0920402F0920502209145
:104E5000B7083091B8084091B9085091BA08C70115
:104E6000B6010F9421182B013C010F942D206B01EA
:104E70007C0120E030E0A9010F94BB1787FD7AC0C8
:104E800020E030E040E850E4C701B6010F94EB2089
:104E9000181634F4C12CD12CC0E8EC2EC0E4FC2E42
:104EA000A7019601C301B2010F948A1E2B013C0198
:104EB00020E030E0A9010F94BB1787FD5FC040924E
:104EC000AF085092B0086092B1087092B208C70162
:104ED000B6010F94F71F6093AD08062E000C770BF8
:104EE0006F5F7F4F6430710514F064E070E0609391
:104EF000AB08D09100021091AD08A501940160911A
:104F000006027091070280910802909109020F94A5
:104F1000BB1781113CC0D11394C0209193083091EC
:104F2000940840919508509196086091AF0870914F
:104F3000B0088091B1089091B2080F942118209187
:104F40009708309198084091990850919A080F94C9
:104F50008B1EDF91CF911F910F91FF90EF90DF900B
:104F6000CF90BF90AF909F908F907F906F905F9009
:104F70004F900895C12CD12C760192CF1092AF089A
:104F80001092B0081092B1081092B208A0CF80928F
:104F9000060290920702A0920802B09209022091A4
:104FA000BB083091BC084091BD085091BE08C501B6
:104FB000B4010F9421184B015C010F942D206B015B
:104FC0007C0120E030E0A9010F94BB1787FDFDC0F4
:104FD00020E030E040E850E4C701B6010F94EB2038
:104FE000181634F4C12CD12CB0E8EB2EB0E4FB2E13
:104FF000A7019601C501B4010F948A1E4B015C0103
:1050000020E030E0A9010F94BB1787FDE2C0809239
:10501000B3089092B408A092B508B092B608C70140
:10502000B6010F94F71F6093AE08062E000C770BA5
:105030006F5F7F4F6430710514F064E070E060933F
:10504000AC08C091AE08D11305C0809101028C1745
:1050500009F470C08091AD089091AE089093010260
:10506000809300020C2E000CDD0B25E01203C00122
:105070001124FC01EC0FFD1FEE0FFF1FEE0FFF1FB1
:10508000E758F24F20813181428153812093A70854
:105090003093A8084093A9085093AA080091AC083F
:1050A000002E000C110BFC01E00FF11FEE0FFF1F93
:1050B000EE0FFF1FE758F24F60817181828193816B
:1050C0000F948A1E6093A3087093A4088093A50888
:1050D0009093A6082091AB0835E02303F00111243A
:1050E000CE0FDF1FCC0FDD1FCC0FDD1FC758D24FF7
:1050F000288139814A815B8120939F083093A008E1
:105100004093A1085093A208E00FF11FEE0FFF1F7C
:10511000EE0FFF1FE758F24F60817181828193810A
:105120000F948A1E60939B0870939C0880939D083F
:1051300090939E088090B3089090B408A090B50812
:10514000B090B6082091A3083091A4084091A5081A
:105150005091A608C501B4010F9421182091A70809
:105160003091A8084091A9085091AA080F948B1E6D
:105170006B017C01C0929708D0929808E092990840
:10518000F0929A0820919B0830919C0840919D08CC
:1051900050919E08C501B4010F94211820919F08D9
:1051A0003091A0084091A1085091A2080F948B1E45
:1051B000A70196010F948A1E609393087093940838
:1051C0008093950890939608A8CEC12CD12C760197
:1051D0000FCF1092B3081092B4081092B508109235
:1051E000B6081DCFCF93C82F882379F020E030E098
:1051F000A9016091E1097091E2098091E309909120
:10520000E4090F94BB178823F9F08091E60D8C1701
:10521000D9F00E94F4A583EA92E00E94DF268091F3
:10522000E60D882349F087E792E00E9417A61092C6
:10523000E60DCF910C9489BE81E08093E60D87E75F
:1052400092E00E9440A5F5CFCF9108958F929F9252
:10525000AF92BF92EF92FF920F931F93CF93DF9382
:1052600080E00E94F2281092D7091092D80910927B
:10527000D9091092DA091092D3091092D409109228
:10528000D5091092D6091092E5091092E6091092FC
:10529000E7091092E8091092E1091092E2091092D0
:1052A000E3091092E40909E71DE0C0E0812C912C8C
:1052B00080ECA82E8FE7B82E7801D0E0F70181921C
:1052C0009192A192B1927F016D2F8C2F0E94BAEE24
:1052D000DF5FD53099F7CF5F0C5E1F4FC53061F7A8
:1052E000DF91CF911F910F91FF90EF90BF90AF9002
:1052F0009F908F900895EFE6F0E080818260808338
:1053000008958091861190918711892B79F480916D
:10531000861190918711892B49F420918611309143
:10532000871181E0232B19F480E0089581E008952E
:10533000CF92DF92EF92FF926B017C0183E3C8165C
:10534000D104E104F10470F082E3C81AD108E10845
:10535000F10862E370E080E090E00E944AF40E946D
:10536000999EECCFC701B6010E944AF4FF90EF90DE
:10537000DF90CF900C94999E2091CF0920FF14C00C
:1053800020E83EE3629FA001639F500D729F500D85
:105390001124CA019695879596958795009731F0C7
:1053A0008A950000E9F708950C94982908954F9282
:1053B0005F926F927F92AF92BF92CF92DF92EF9205
:1053C000FF920F931F93CF93DF9300D000D01F92D3
:1053D0001F92CDB7DEB75C0180E090E0A0E7B2E4B9
:1053E00089839A83AB83BC8380E090E0A0E8B0EC33
:1053F0008D839E83AF83B887BE016F5F7F4FCE01E1
:1054000005960E94CDBD68E873E180E090E00E94BF
:105410009829C12CD12C88ECE82E81E4F82EC98281
:10542000DA82EB82FC8280E090E0A0E8B0E48D8339
:105430009E83AF83B887BE016F5F7F4FCE01059615
:105440000E94CDBD05ED10E1F80140AC51AC62AC5D
:1054500073ACC0AED1AEE2AEF3AE80E090E0A0E2BD
:10546000B2E489839A83AB83BC83F5018081918107
:10547000A281B3818D839E83AF83B887BE016F5FA6
:105480007F4FCE0105960E94CDBDF80140AE51AED2
:1054900062AE73AE129A64E670E080E090E00E9423
:1054A000982981E028960FB6F894DEBF0FBECDBFD5
:1054B000DF91CF911F910F91FF90EF90DF90CF90F0
:1054C000BF90AF907F906F905F904F900895109233
:1054D000BF0880911B0290911C02A0911D02B09107
:1054E0001E0280931A0A90931B0AA0931C0AB09381
:1054F0001D0A08955F9A809188118E7F809388118C
:105500008A9A809188118D7F8093881180910801FB
:105510008095817080930601809188118B7F8093A4
:1055200088110C940B180E9447A9909176169093BD
:105530007516909374169093731694E69093721662
:1055400020ED33E03093D3102093D21081110E94CC
:105550007B2981E08093220A0E94F4A58EEF0E94AD
:10556000FDBD0C9489BE90916B1793FB882780F941
:1055700093FF06C081E09091CF15911101C080E0AA
:105580000895CF93C091D109CF7739F50E94B32AFE
:10559000882319F18091631790916417A091651782
:1055A000B09166170097A105B105B9F0BC01CD0116
:1055B0006D597F4F8F4F9F4F24E630E040E050E021
:1055C0000F94FF1D6091671770916817809169179C
:1055D00090916A170F94FF1DC22F8C2FCF910895C1
:1055E000EFE0FEE0108211820895DC01EC918E2F35
:1055F00090E0FC01EE0FFF1FE80FF91FEE5FF94E80
:1056000080818F77808308958F929F92AF92BF920F
:10561000CF92DF92EF92FF920F93CF93DF931F927F
:10562000CDB7DEB75C017B0149016B01C40ED51E0D
:10563000F501808191810F94D91D8983002311F098
:10564000F7018083BE016F5F7F4FC4010E94CDDCF4
:10565000F50180819181019691838083FFEFEF1A9C
:10566000FF0AEC14FD0421F780E00F90DF91CF9149
:105670000F91FF90EF90DF90CF90BF90AF909F90F1
:105680008F900895009781F41092900082E08093AB
:1056900091001092950010929400C19A809171002F
:1056A00082608093710008958130910569F41092B1
:1056B000A00082E08093A1001092A5001092A400A7
:1056C00089BB809372000895029761F410922001C3
:1056D00082E08093210110922501109224018ABB5F
:1056E0008093730008957F928F929F92AF92BF92A2
:1056F000CF92DF92EF92FF920F931F93CF93DF939E
:10570000EC017B018881843208F0C4C090E0FC0188
:10571000EE0FFF1FE80FF91FEE5FF94E808161E089
:105720008F770E9437F319821A8288812CE0622FCA
:105730000F94621E829FB001112430E020E0AB0183
:10574000420F531FFA01EE0FFF1FE40FF51FEE5F2C
:10575000F94E908197FD08C02F5F3F4F2C303105E7
:1057600071F790E00E94422B7880072D10E06801CD
:10577000CC0CDD1CF601E00FF11FEE5FF94E8081CD
:105780008068808377FC86C080E2E81682E0F806B5
:105790000CF03FC08A8128E532E0281B310987FDE3
:1057A0003395220F331F220F331F032E000C440B9F
:1057B000550B898178E8872E912C881A910887FDEE
:1057C0009394880C991C880C991C092C000CAA082D
:1057D000BB0860E070E0CB01F7FC0AC0B701653B95
:1057E000710514F064EB70E0072E000C880B990B28
:1057F000281939094A095B090F94EF1D24EB30E0A1
:1058000040E050E00F94211E820E931EA41EB51E90
:10581000740183E28715D8F0298188E890E0821B23
:10582000910927FD9395880F991F880F991FE816F6
:10583000F90604F502972FB7F894E601C00FD11FBF
:10584000CE5FD94E880F991F9A8389832FBF62E359
:1058500070E080E090E0DF91CF911F910F91FF9079
:10586000EF90DF90CF90BF90AF909F908F907F9000
:105870000C9498292A8188E592E0821B910927FDE2
:105880009395880F991F880F991FE816F90694F6CB
:10589000C701D0CFDF91CF911F910F91FF90EF9073
:1058A000DF90CF90BF90AF909F908F907F900895A2
:1058B000CF93DF93EB01682F70E08FE696E10E94B3
:1058C000732B688179818A819B81643F21E0720713
:1058D0008105910520F464EF71E080E090E00E9482
:1058E000982989B183FB882780F9DF91CF910895AA
:1058F0008F929F92AF92BF92CF92DF92EF92FF92E0
:10590000CF93DF9300D01F92CDB7DEB7B82E84EFD0
:1059100091E0A0E0B0E089839A83AB83BC83BE01B1
:105920006F5F7F4F80EA0E94582C9EEEC92E92E056
:10593000D92EE12CF12CC982DA82EB82FC82BE01E5
:105940006F5F7F4F8AE50E94582C8091D2098111A8
:105950003CC0BB20D1F1C982DA82EB82FC82BE015D
:105960006F5F7F4F8AE00E94582C86E9882E912C29
:10597000A12CB12C89829A82AB82BC82BE016F5F5E
:105980007F4F8CE80E94582C89829A82AB82BC821D
:10599000BE016F5F7F4F82E80E94582C89829A82F5
:1059A000AB82BC82BE016F5F7F4F8CE80E94582C97
:1059B000C982DA82EB82FC82BE016F5F7F4F8AE58B
:1059C0000E94582C81E08093D2090F900F900F9085
:1059D0000F90DF91CF91FF90EF90DF90CF90BF902D
:1059E000AF909F908F9008951F920F920FB60F92D5
:1059F00011240BB60F922F933F934F935F936F93A6
:105A00007F938F939F93AF93BF93EF93FF9348E25E
:105A100051E064E271E082E090E00E94291CFF9175
:105A2000EF91BF91AF919F918F917F916F915F9116
:105A30004F913F912F910F900BBE0F900FBE0F9083
:105A40001F9018951F920F920FB60F9211240BB64C
:105A50000F922F933F934F935F936F937F938F9307
:105A60009F93AF93BF93EF93FF9348EA50E064EAAC
:105A700070E081E090E00E94291CFF91EF91BF91BE
:105A8000AF919F918F917F916F915F914F913F91D6
:105A90002F910F900BBE0F900FBE0F901F90189577
:105AA0001F920F920FB60F9211240BB60F922F93E5
:105AB0003F934F935F936F937F938F939F93AF9396
:105AC000BF93EF93FF9348E950E064E970E090E002
:105AD00080E00E94291CFF91EF91BF91AF919F91AF
